{
  "contractName": "SimpleAuction",
  "abi": [
    {
      "inputs": [
        {
          "internalType": "uint256",
          "name": "_biddingTime",
          "type": "uint256"
        },
        {
          "internalType": "address payable",
          "name": "_beneficiary",
          "type": "address"
        },
        {
          "internalType": "address",
          "name": "_ttp",
          "type": "address"
        }
      ],
      "payable": false,
      "stateMutability": "nonpayable",
      "type": "constructor"
    },
    {
      "anonymous": false,
      "inputs": [],
      "name": "AuctionCancelled",
      "type": "event"
    },
    {
      "anonymous": false,
      "inputs": [],
      "name": "AuctionEnded",
      "type": "event"
    },
    {
      "anonymous": false,
      "inputs": [
        {
          "indexed": false,
          "internalType": "address",
          "name": "winner",
          "type": "address"
        },
        {
          "indexed": false,
          "internalType": "uint256",
          "name": "amount",
          "type": "uint256"
        }
      ],
      "name": "AuctionWon",
      "type": "event"
    },
    {
      "anonymous": false,
      "inputs": [
        {
          "indexed": false,
          "internalType": "address",
          "name": "bidder",
          "type": "address"
        },
        {
          "indexed": false,
          "internalType": "uint256",
          "name": "amount",
          "type": "uint256"
        }
      ],
      "name": "HighestBidIncreased",
      "type": "event"
    },
    {
      "constant": true,
      "inputs": [],
      "name": "auctionEndTime",
      "outputs": [
        {
          "internalType": "uint256",
          "name": "",
          "type": "uint256"
        }
      ],
      "payable": false,
      "stateMutability": "view",
      "type": "function"
    },
    {
      "constant": true,
      "inputs": [],
      "name": "beneficiary",
      "outputs": [
        {
          "internalType": "address payable",
          "name": "",
          "type": "address"
        }
      ],
      "payable": false,
      "stateMutability": "view",
      "type": "function"
    },
    {
      "constant": true,
      "inputs": [],
      "name": "highestBid",
      "outputs": [
        {
          "internalType": "uint256",
          "name": "",
          "type": "uint256"
        }
      ],
      "payable": false,
      "stateMutability": "view",
      "type": "function"
    },
    {
      "constant": true,
      "inputs": [],
      "name": "highestBidder",
      "outputs": [
        {
          "internalType": "address",
          "name": "",
          "type": "address"
        }
      ],
      "payable": false,
      "stateMutability": "view",
      "type": "function"
    },
    {
      "constant": true,
      "inputs": [],
      "name": "ttp",
      "outputs": [
        {
          "internalType": "address",
          "name": "",
          "type": "address"
        }
      ],
      "payable": false,
      "stateMutability": "view",
      "type": "function"
    },
    {
      "constant": false,
      "inputs": [],
      "name": "bid",
      "outputs": [],
      "payable": true,
      "stateMutability": "payable",
      "type": "function"
    },
    {
      "constant": false,
      "inputs": [],
      "name": "withdraw",
      "outputs": [
        {
          "internalType": "bool",
          "name": "",
          "type": "bool"
        }
      ],
      "payable": false,
      "stateMutability": "nonpayable",
      "type": "function"
    },
    {
      "constant": false,
      "inputs": [],
      "name": "sign",
      "outputs": [],
      "payable": false,
      "stateMutability": "nonpayable",
      "type": "function"
    },
    {
      "constant": false,
      "inputs": [],
      "name": "cancelAuction",
      "outputs": [],
      "payable": false,
      "stateMutability": "nonpayable",
      "type": "function"
    }
  ],
  "bytecode": "0x608060405234801561001057600080fd5b506040516111763803806111768339818101604052606081101561003357600080fd5b81019080805190602001909291908051906020019092919080519060200190929190505050816000806101000a81548173ffffffffffffffffffffffffffffffffffffffff021916908373ffffffffffffffffffffffffffffffffffffffff16021790555082420160018190555080600460006101000a81548173ffffffffffffffffffffffffffffffffffffffff021916908373ffffffffffffffffffffffffffffffffffffffff160217905550505050611082806100f46000396000f3fe6080604052600436106100865760003560e01c80634b449cba116100595780634b449cba146101325780637443159a1461015d5780638fa8b790146101b457806391f90157146101cb578063d57bde791461022257610086565b80631998aeef1461008b5780632ca151221461009557806338af3eed146100ac5780633ccfd60b14610103575b600080fd5b61009361024d565b005b3480156100a157600080fd5b506100aa6104f0565b005b3480156100b857600080fd5b506100c1610984565b604051808273ffffffffffffffffffffffffffffffffffffffff1673ffffffffffffffffffffffffffffffffffffffff16815260200191505060405180910390f35b34801561010f57600080fd5b506101186109a9565b604051808215151515815260200191505060405180910390f35b34801561013e57600080fd5b50610147610ad4565b6040518082815260200191505060405180910390f35b34801561016957600080fd5b50610172610ada565b604051808273ffffffffffffffffffffffffffffffffffffffff1673ffffffffffffffffffffffffffffffffffffffff16815260200191505060405180910390f35b3480156101c057600080fd5b506101c9610b00565b005b3480156101d757600080fd5b506101e0610f7f565b604051808273ffffffffffffffffffffffffffffffffffffffff1673ffffffffffffffffffffffffffffffffffffffff16815260200191505060405180910390f35b34801561022e57600080fd5b50610237610fa5565b6040518082815260200191505060405180910390f35b6001544211156102c5576040517f08c379a00000000000000000000000000000000000000000000000000000000081526004018080602001828103825260168152602001807f41756374696f6e20616c726561647920656e6465642e0000000000000000000081525060200191505060405180910390fd5b600354341161033c576040517f08c379a000000000000000000000000000000000000000000000000000000000815260040180806020018281038252601e8152602001807f546865726520616c7265616479206973206120686967686572206269642e000081525060200191505060405180910390fd5b600960009054906101000a900460ff16156103bf576040517f08c379a000000000000000000000000000000000000000000000000000000000815260040180806020018281038252601a8152602001807f41756374696f6e20686173206265656e2063616e63656c6c656400000000000081525060200191505060405180910390fd5b60006003541461043b5760035460056000600260009054906101000a900473ffffffffffffffffffffffffffffffffffffffff1673ffffffffffffffffffffffffffffffffffffffff1673ffffffffffffffffffffffffffffffffffffffff168152602001908152602001600020600082825401925050819055505b33600260006101000a81548173ffffffffffffffffffffffffffffffffffffffff021916908373ffffffffffffffffffffffffffffffffffffffff160217905550346003819055507ff4757a49b326036464bec6fe419a4ae38c8a02ce3e68bf0809674f6aab8ad3003334604051808373ffffffffffffffffffffffffffffffffffffffff1673ffffffffffffffffffffffffffffffffffffffff1681526020018281526020019250505060405180910390a1565b6000809054906101000a900473ffffffffffffffffffffffffffffffffffffffff1673ffffffffffffffffffffffffffffffffffffffff163373ffffffffffffffffffffffffffffffffffffffff1614806105985750600260009054906101000a900473ffffffffffffffffffffffffffffffffffffffff1673ffffffffffffffffffffffffffffffffffffffff163373ffffffffffffffffffffffffffffffffffffffff16145b806105f05750600460009054906101000a900473ffffffffffffffffffffffffffffffffffffffff1673ffffffffffffffffffffffffffffffffffffffff163373ffffffffffffffffffffffffffffffffffffffff16145b610645576040517f08c379a000000000000000000000000000000000000000000000000000000000815260040180806020018281038252603181526020018061101d6031913960400191505060405180910390fd5b600960009054906101000a900460ff16156106ab576040517f08c379a0000000000000000000000000000000000000000000000000000000008152600401808060200182810382526023815260200180610ffa6023913960400191505060405180910390fd5b600154421015610706576040517f08c379a0000000000000000000000000000000000000000000000000000000008152600401808060200182810382526022815260200180610fac6022913960400191505060405180910390fd5b60011515600760003373ffffffffffffffffffffffffffffffffffffffff1673ffffffffffffffffffffffffffffffffffffffff16815260200190815260200160002060009054906101000a900460ff16151514156107cd576040517f08c379a000000000000000000000000000000000000000000000000000000000815260040180806020018281038252601b8152602001807f43616e6e6f74207369676e206d6f7265207468616e206f6e63652e000000000081525060200191505060405180910390fd5b6001600760003373ffffffffffffffffffffffffffffffffffffffff1673ffffffffffffffffffffffffffffffffffffffff16815260200190815260200160002060006101000a81548160ff0219169083151502179055506008600081548092919060010191905055507fa7f57fa38c1f675856eb8c2460c87aa01ecd63c51d4c817d4389cd5789ccc44b600260009054906101000a900473ffffffffffffffffffffffffffffffffffffffff16600354604051808373ffffffffffffffffffffffffffffffffffffffff1673ffffffffffffffffffffffffffffffffffffffff1681526020018281526020019250505060405180910390a1600260085410610982577fa0e92984607195c326795751263414ee1074526323552e694c90ef2b99ae3f2960405160405180910390a16001600660006101000a81548160ff0219169083151502179055506000809054906101000a900473ffffffffffffffffffffffffffffffffffffffff1673ffffffffffffffffffffffffffffffffffffffff166108fc6003549081150290604051600060405180830381858888f19350505050158015610980573d6000803e3d6000fd5b505b565b6000809054906101000a900473ffffffffffffffffffffffffffffffffffffffff1681565b600080600560003373ffffffffffffffffffffffffffffffffffffffff1673ffffffffffffffffffffffffffffffffffffffff1681526020019081526020016000205490506000811115610acb576000600560003373ffffffffffffffffffffffffffffffffffffffff1673ffffffffffffffffffffffffffffffffffffffff1681526020019081526020016000208190555060003390508073ffffffffffffffffffffffffffffffffffffffff166108fc839081150290604051600060405180830381858888f19350505050610ac95781600560003373ffffffffffffffffffffffffffffffffffffffff1673ffffffffffffffffffffffffffffffffffffffff16815260200190815260200160002081905550600092505050610ad1565b505b60019150505b90565b60015481565b600460009054906101000a900473ffffffffffffffffffffffffffffffffffffffff1681565b6000809054906101000a900473ffffffffffffffffffffffffffffffffffffffff1673ffffffffffffffffffffffffffffffffffffffff163373ffffffffffffffffffffffffffffffffffffffff1614610ba5576040517f08c379a000000000000000000000000000000000000000000000000000000000815260040180806020018281038252602c815260200180610fce602c913960400191505060405180910390fd5b60011515600760008060009054906101000a900473ffffffffffffffffffffffffffffffffffffffff1673ffffffffffffffffffffffffffffffffffffffff1673ffffffffffffffffffffffffffffffffffffffff16815260200190815260200160002060009054906101000a900460ff1615151415610c8d576040517f08c379a000000000000000000000000000000000000000000000000000000000815260040180806020018281038252601f8152602001807f41756374696f6e2068617320616c7265616479206265656e207369676e65640081525060200191505060405180910390fd5b6001151560076000600260009054906101000a900473ffffffffffffffffffffffffffffffffffffffff1673ffffffffffffffffffffffffffffffffffffffff1673ffffffffffffffffffffffffffffffffffffffff16815260200190815260200160002060009054906101000a900460ff1615151415610d76576040517f08c379a000000000000000000000000000000000000000000000000000000000815260040180806020018281038252601f8152602001807f41756374696f6e2068617320616c7265616479206265656e207369676e65640081525060200191505060405180910390fd5b6001151560076000600460009054906101000a900473ffffffffffffffffffffffffffffffffffffffff1673ffffffffffffffffffffffffffffffffffffffff1673ffffffffffffffffffffffffffffffffffffffff16815260200190815260200160002060009054906101000a900460ff1615151415610e5f576040517f08c379a000000000000000000000000000000000000000000000000000000000815260040180806020018281038252601f8152602001807f41756374696f6e2068617320616c7265616479206265656e207369676e65640081525060200191505060405180910390fd5b600960009054906101000a900460ff1615610ec5576040517f08c379a0000000000000000000000000000000000000000000000000000000008152600401808060200182810382526023815260200180610ffa6023913960400191505060405180910390fd5b6001600960006101000a81548160ff0219169083151502179055507fa5fb31e47bd1eca58bf14a3312d5e6aeafdc4ee787c8ed348c15c2b092324d9360405160405180910390a160035460056000600260009054906101000a900473ffffffffffffffffffffffffffffffffffffffff1673ffffffffffffffffffffffffffffffffffffffff1673ffffffffffffffffffffffffffffffffffffffff16815260200190815260200160002060008282540192505081905550565b600260009054906101000a900473ffffffffffffffffffffffffffffffffffffffff1681565b6003548156fe43616e6e6f74207369676e206265666f72652061756374696f6e206973206f7665724f6e6c79207468652062656e65666963696172792063616e2063616c6c20746869732066756e6374696f6e2e41756374696f6e2068617320616c7265616479206265656e2063616e63656c6c65642e4f6e6c792074686520696e766f6c76656420706172746965732063616e2063616c6c20746869732066756e6374696f6e2ea265627a7a7231582009bb54329fe425995b09cc3f53abd1e71a94f13d2a8f5a80435383f354a6fd8364736f6c63430005100032",
  "source": "// This code comes from the Solidity Documentation website (https://docs.soliditylang.org/en/v0.5.11/solidity-by-example.html#blind-auction)\r\n// It is suitable for the purpose of this website\r\n\r\n// The modifications I have made primarily concern the transfer of physical goods, which this auction site is designed for.\r\n// The contract requires a trusted third-party to verify that the parties involved are behaving correctly.\r\n\r\n// The beneficiary signs the auction when they have sent the good.\r\n// The winner signs the auction when they confirm they have received the good.\r\n// The TTP signs when they confirm that the beneficiary has sent the good.\r\n\r\n// Money will only be transferred once 2/3 of the involved parties and the TTP have signed the auction.\r\n// Assuming no foul play, the TTP will not need to even get involved.\r\n// The TTP is chosen by the beneficiary of the auction.\r\n// The contract also assumes that the TTP will act fairly between the two parties. In the site's front-end, when placing a bid you will ask to confirm that you trust the TPP.\r\n\r\n// The auction can now also be cancelled, resulting in no transfer of money.\r\n// The beneficiary can cancel up until the point someone signs the auction.\r\n\r\n// Sections I have modified will be denoted by ***MODIFIED HERE***\r\n\r\npragma solidity >=0.4.22 <0.9.0;\r\n\r\ncontract SimpleAuction {\r\n    // Parameters of the auction. Times are either\r\n    // absolute unix timestamps (seconds since 1970-01-01)\r\n    // or time periods in seconds.\r\n    address payable public beneficiary;\r\n    uint public auctionEndTime;\r\n\r\n    // Current state of the auction.\r\n    address public highestBidder;\r\n    uint public highestBid;\r\n\r\n    // ***MODIFIED HERE***\r\n    // Address of the TTP, used to verify the auction.\r\n    address public ttp;\r\n\r\n    // Allowed withdrawals of previous bids\r\n    mapping(address => uint) pendingReturns;\r\n\r\n    // Set to true at the end, disallows any change.\r\n    // By default initialized to `false`.\r\n    bool ended;\r\n\r\n    // ***MODIFIED HERE***\r\n    // This map will contain all of the parties who have verified the transaction. 2/3 are needed to end the auction\r\n    mapping(address => bool) signed;\r\n    // Counts the number of signatures.\r\n    uint sigCount;\r\n\r\n    // This variable is set to true when the auction is cancelled\r\n    bool cancelled;\r\n    // This event fires when the auction is cancelled\r\n    event AuctionCancelled();\r\n    // This event fires when the auction is over.\r\n    event AuctionEnded();\r\n\r\n    // Events that will be emitted on changes.\r\n    event HighestBidIncreased(address bidder, uint amount);\r\n    event AuctionWon(address winner, uint amount);\r\n\r\n    // The following is a so-called natspec comment,\r\n    // recognizable by the three slashes.\r\n    // It will be shown when the user is asked to\r\n    // confirm a transaction.\r\n\r\n    /// Create a simple auction with `_biddingTime`\r\n    /// seconds bidding time on behalf of the\r\n    /// beneficiary address `_beneficiary`.\r\n    constructor(\r\n        uint _biddingTime,\r\n        address payable _beneficiary,\r\n        address _ttp\r\n    ) public {\r\n        beneficiary = _beneficiary;\r\n        auctionEndTime = block.timestamp + _biddingTime;\r\n        ttp = _ttp;\r\n    }\r\n\r\n    /// Bid on the auction with the value sent\r\n    /// together with this transaction.\r\n    /// The value will only be refunded if the\r\n    /// auction is not won.\r\n    function bid() public payable {\r\n        // No arguments are necessary, all\r\n        // information is already part of\r\n        // the transaction. The keyword payable\r\n        // is required for the function to\r\n        // be able to receive Ether.\r\n\r\n        // Revert the call if the bidding\r\n        // period is over.\r\n        require(\r\n            block.timestamp <= auctionEndTime,\r\n            \"Auction already ended.\"\r\n        );\r\n\r\n        // If the bid is not higher, send the\r\n        // money back.\r\n        require(\r\n            msg.value > highestBid,\r\n            \"There already is a higher bid.\"\r\n        );\r\n\r\n        // ***MODIFIED HERE***\r\n        // Require that the auction has not been cancelled\r\n        require(!cancelled, \"Auction has been cancelled\");\r\n\r\n        if (highestBid != 0) {\r\n            // Sending back the money by simply using\r\n            // highestBidder.send(highestBid) is a security risk\r\n            // because it could execute an untrusted contract.\r\n            // It is always safer to let the recipients\r\n            // withdraw their money themselves.\r\n            pendingReturns[highestBidder] += highestBid;\r\n        }\r\n        highestBidder = msg.sender;\r\n        highestBid = msg.value;\r\n        emit HighestBidIncreased(msg.sender, msg.value);\r\n    }\r\n\r\n    /// Withdraw a bid that was overbid.\r\n    function withdraw() public returns (bool) {\r\n        uint amount = pendingReturns[msg.sender];\r\n        if (amount > 0) {\r\n            // It is important to set this to zero because the recipient\r\n            // can call this function again as part of the receiving call\r\n            // before `send` returns.\r\n            pendingReturns[msg.sender] = 0;\r\n\r\n            // cast to payable\r\n            address payable caller = msg.sender;\r\n\r\n            if (!caller.send(amount)) {\r\n                // No need to call throw here, just reset the amount owing\r\n                pendingReturns[msg.sender] = amount;\r\n                return false;\r\n            }\r\n        }\r\n        return true;\r\n    }\r\n\r\n    // ***MODIFIED HERE***\r\n    // Once the auction time has run out, the involved parties need to sign off on the auction. Once 2/3 have signed it, then the auction can end and money can be transferred.\r\n    function sign() public {\r\n        require(msg.sender == beneficiary || msg.sender == highestBidder || msg.sender == ttp, \"Only the involved parties can call this function.\");\r\n        require(!cancelled, \"Auction has already been cancelled.\");\r\n        require(block.timestamp >= auctionEndTime, \"Cannot sign before auction is over\");\r\n        require(signed[msg.sender] != true, \"Cannot sign more than once.\");\r\n\r\n        // 2. Effects\r\n        signed[msg.sender] = true;\r\n        sigCount++;\r\n        emit AuctionWon(highestBidder, highestBid);\r\n\r\n        // Once there have been 2/3 signatures, end the auction and transfer the money\r\n        if (sigCount >= 2) {\r\n            emit AuctionEnded();\r\n            ended = true;\r\n            beneficiary.transfer(highestBid);\r\n        }\r\n        \r\n    }\r\n\r\n\r\n    // This function will cancel the auction before anyone has signed it.\r\n    function cancelAuction() public {\r\n        require(msg.sender == beneficiary, \"Only the beneficiary can call this function.\");\r\n        require(signed[beneficiary] != true, \"Auction has already been signed\");\r\n        require(signed[highestBidder] != true, \"Auction has already been signed\");\r\n        require(signed[ttp] != true, \"Auction has already been signed\");\r\n        require(!cancelled, \"Auction has already been cancelled.\");\r\n\r\n        cancelled = true;\r\n        emit AuctionCancelled();\r\n\r\n        // Put the current highest bid in the pending withdrawals queue\r\n        pendingReturns[highestBidder] += highestBid;\r\n    }\r\n\r\n}",
  "sourcePath": "E:\\EA SPORTS\\truffleauction\\contracts\\SimpleAuction.sol",
  "compiler": {
    "name": "solc",
    "version": "0.5.16+commit.9c3226ce.Emscripten.clang"
  },
  "schemaVersion": "3.4.7",
  "updatedAt": "2022-05-10T15:30:46.288Z",
  "networkType": "ethereum",
  "devdoc": {
    "methods": {}
  },
  "userdoc": {
    "methods": {
      "bid()": {
        "notice": "Bid on the auction with the value sent together with this transaction. The value will only be refunded if the auction is not won."
      },
      "constructor": "Create a simple auction with `_biddingTime` seconds bidding time on behalf of the beneficiary address `_beneficiary`.",
      "withdraw()": {
        "notice": "Withdraw a bid that was overbid."
      }
    }
  }
}