{
  "contractName": "AuctionMaker",
  "abi": [
    {
      "anonymous": false,
      "inputs": [
        {
          "indexed": false,
          "internalType": "address",
          "name": "auction",
          "type": "address"
        },
        {
          "indexed": false,
          "internalType": "address",
          "name": "beneficiary",
          "type": "address"
        },
        {
          "indexed": false,
          "internalType": "address",
          "name": "ttp",
          "type": "address"
        },
        {
          "indexed": false,
          "internalType": "uint256",
          "name": "biddingTime",
          "type": "uint256"
        }
      ],
      "name": "AuctionCreated",
      "type": "event"
    },
    {
      "constant": true,
      "inputs": [
        {
          "internalType": "uint256",
          "name": "",
          "type": "uint256"
        }
      ],
      "name": "auctions",
      "outputs": [
        {
          "internalType": "address",
          "name": "",
          "type": "address"
        }
      ],
      "payable": false,
      "stateMutability": "view",
      "type": "function"
    },
    {
      "constant": false,
      "inputs": [
        {
          "internalType": "uint256",
          "name": "biddingTime",
          "type": "uint256"
        },
        {
          "internalType": "address",
          "name": "ttp",
          "type": "address"
        }
      ],
      "name": "createAuction",
      "outputs": [],
      "payable": false,
      "stateMutability": "nonpayable",
      "type": "function"
    },
    {
      "constant": true,
      "inputs": [],
      "name": "getAuction",
      "outputs": [
        {
          "internalType": "address[]",
          "name": "",
          "type": "address[]"
        }
      ],
      "payable": false,
      "stateMutability": "view",
      "type": "function"
    }
  ],
  "bytecode": "0x608060405234801561001057600080fd5b506115c7806100206000396000f3fe608060405234801561001057600080fd5b50600436106100415760003560e01c80630ce289bd14610046578063571a26a0146100945780637327df2514610102575b600080fd5b6100926004803603604081101561005c57600080fd5b8101908080359060200190929190803573ffffffffffffffffffffffffffffffffffffffff169060200190929190505050610161565b005b6100c0600480360360208110156100aa57600080fd5b8101908080359060200190929190505050610345565b604051808273ffffffffffffffffffffffffffffffffffffffff1673ffffffffffffffffffffffffffffffffffffffff16815260200191505060405180910390f35b61010a610381565b6040518080602001828103825283818151815260200191508051906020019060200280838360005b8381101561014d578082015181840152602081019050610132565b505050509050019250505060405180910390f35b600033905060008382846040516101779061040f565b808481526020018373ffffffffffffffffffffffffffffffffffffffff1673ffffffffffffffffffffffffffffffffffffffff1681526020018273ffffffffffffffffffffffffffffffffffffffff1673ffffffffffffffffffffffffffffffffffffffff1681526020019350505050604051809103906000f080158015610203573d6000803e3d6000fd5b50905060008190806001815401808255809150509060018203906000526020600020016000909192909190916101000a81548173ffffffffffffffffffffffffffffffffffffffff021916908373ffffffffffffffffffffffffffffffffffffffff160217905550507faab8be1e353a93a6790aab2ee44552cf23d58c28a829c5a00becfdcf5bebef1c81338587604051808573ffffffffffffffffffffffffffffffffffffffff1673ffffffffffffffffffffffffffffffffffffffff1681526020018473ffffffffffffffffffffffffffffffffffffffff1673ffffffffffffffffffffffffffffffffffffffff1681526020018373ffffffffffffffffffffffffffffffffffffffff1673ffffffffffffffffffffffffffffffffffffffff16815260200182815260200194505050505060405180910390a150505050565b6000818154811061035257fe5b906000526020600020016000915054906101000a900473ffffffffffffffffffffffffffffffffffffffff1681565b6060600080548060200260200160405190810160405280929190818152602001828054801561040557602002820191906000526020600020905b8160009054906101000a900473ffffffffffffffffffffffffffffffffffffffff1673ffffffffffffffffffffffffffffffffffffffff16815260200190600101908083116103bb575b5050505050905090565b6111768061041d8339019056fe608060405234801561001057600080fd5b506040516111763803806111768339818101604052606081101561003357600080fd5b81019080805190602001909291908051906020019092919080519060200190929190505050816000806101000a81548173ffffffffffffffffffffffffffffffffffffffff021916908373ffffffffffffffffffffffffffffffffffffffff16021790555082420160018190555080600460006101000a81548173ffffffffffffffffffffffffffffffffffffffff021916908373ffffffffffffffffffffffffffffffffffffffff160217905550505050611082806100f46000396000f3fe6080604052600436106100865760003560e01c80634b449cba116100595780634b449cba146101325780637443159a1461015d5780638fa8b790146101b457806391f90157146101cb578063d57bde791461022257610086565b80631998aeef1461008b5780632ca151221461009557806338af3eed146100ac5780633ccfd60b14610103575b600080fd5b61009361024d565b005b3480156100a157600080fd5b506100aa6104f0565b005b3480156100b857600080fd5b506100c1610984565b604051808273ffffffffffffffffffffffffffffffffffffffff1673ffffffffffffffffffffffffffffffffffffffff16815260200191505060405180910390f35b34801561010f57600080fd5b506101186109a9565b604051808215151515815260200191505060405180910390f35b34801561013e57600080fd5b50610147610ad4565b6040518082815260200191505060405180910390f35b34801561016957600080fd5b50610172610ada565b604051808273ffffffffffffffffffffffffffffffffffffffff1673ffffffffffffffffffffffffffffffffffffffff16815260200191505060405180910390f35b3480156101c057600080fd5b506101c9610b00565b005b3480156101d757600080fd5b506101e0610f7f565b604051808273ffffffffffffffffffffffffffffffffffffffff1673ffffffffffffffffffffffffffffffffffffffff16815260200191505060405180910390f35b34801561022e57600080fd5b50610237610fa5565b6040518082815260200191505060405180910390f35b6001544211156102c5576040517f08c379a00000000000000000000000000000000000000000000000000000000081526004018080602001828103825260168152602001807f41756374696f6e20616c726561647920656e6465642e0000000000000000000081525060200191505060405180910390fd5b600354341161033c576040517f08c379a000000000000000000000000000000000000000000000000000000000815260040180806020018281038252601e8152602001807f546865726520616c7265616479206973206120686967686572206269642e000081525060200191505060405180910390fd5b600960009054906101000a900460ff16156103bf576040517f08c379a000000000000000000000000000000000000000000000000000000000815260040180806020018281038252601a8152602001807f41756374696f6e20686173206265656e2063616e63656c6c656400000000000081525060200191505060405180910390fd5b60006003541461043b5760035460056000600260009054906101000a900473ffffffffffffffffffffffffffffffffffffffff1673ffffffffffffffffffffffffffffffffffffffff1673ffffffffffffffffffffffffffffffffffffffff168152602001908152602001600020600082825401925050819055505b33600260006101000a81548173ffffffffffffffffffffffffffffffffffffffff021916908373ffffffffffffffffffffffffffffffffffffffff160217905550346003819055507ff4757a49b326036464bec6fe419a4ae38c8a02ce3e68bf0809674f6aab8ad3003334604051808373ffffffffffffffffffffffffffffffffffffffff1673ffffffffffffffffffffffffffffffffffffffff1681526020018281526020019250505060405180910390a1565b6000809054906101000a900473ffffffffffffffffffffffffffffffffffffffff1673ffffffffffffffffffffffffffffffffffffffff163373ffffffffffffffffffffffffffffffffffffffff1614806105985750600260009054906101000a900473ffffffffffffffffffffffffffffffffffffffff1673ffffffffffffffffffffffffffffffffffffffff163373ffffffffffffffffffffffffffffffffffffffff16145b806105f05750600460009054906101000a900473ffffffffffffffffffffffffffffffffffffffff1673ffffffffffffffffffffffffffffffffffffffff163373ffffffffffffffffffffffffffffffffffffffff16145b610645576040517f08c379a000000000000000000000000000000000000000000000000000000000815260040180806020018281038252603181526020018061101d6031913960400191505060405180910390fd5b600960009054906101000a900460ff16156106ab576040517f08c379a0000000000000000000000000000000000000000000000000000000008152600401808060200182810382526023815260200180610ffa6023913960400191505060405180910390fd5b600154421015610706576040517f08c379a0000000000000000000000000000000000000000000000000000000008152600401808060200182810382526022815260200180610fac6022913960400191505060405180910390fd5b60011515600760003373ffffffffffffffffffffffffffffffffffffffff1673ffffffffffffffffffffffffffffffffffffffff16815260200190815260200160002060009054906101000a900460ff16151514156107cd576040517f08c379a000000000000000000000000000000000000000000000000000000000815260040180806020018281038252601b8152602001807f43616e6e6f74207369676e206d6f7265207468616e206f6e63652e000000000081525060200191505060405180910390fd5b6001600760003373ffffffffffffffffffffffffffffffffffffffff1673ffffffffffffffffffffffffffffffffffffffff16815260200190815260200160002060006101000a81548160ff0219169083151502179055506008600081548092919060010191905055507fa7f57fa38c1f675856eb8c2460c87aa01ecd63c51d4c817d4389cd5789ccc44b600260009054906101000a900473ffffffffffffffffffffffffffffffffffffffff16600354604051808373ffffffffffffffffffffffffffffffffffffffff1673ffffffffffffffffffffffffffffffffffffffff1681526020018281526020019250505060405180910390a1600260085410610982577fa0e92984607195c326795751263414ee1074526323552e694c90ef2b99ae3f2960405160405180910390a16001600660006101000a81548160ff0219169083151502179055506000809054906101000a900473ffffffffffffffffffffffffffffffffffffffff1673ffffffffffffffffffffffffffffffffffffffff166108fc6003549081150290604051600060405180830381858888f19350505050158015610980573d6000803e3d6000fd5b505b565b6000809054906101000a900473ffffffffffffffffffffffffffffffffffffffff1681565b600080600560003373ffffffffffffffffffffffffffffffffffffffff1673ffffffffffffffffffffffffffffffffffffffff1681526020019081526020016000205490506000811115610acb576000600560003373ffffffffffffffffffffffffffffffffffffffff1673ffffffffffffffffffffffffffffffffffffffff1681526020019081526020016000208190555060003390508073ffffffffffffffffffffffffffffffffffffffff166108fc839081150290604051600060405180830381858888f19350505050610ac95781600560003373ffffffffffffffffffffffffffffffffffffffff1673ffffffffffffffffffffffffffffffffffffffff16815260200190815260200160002081905550600092505050610ad1565b505b60019150505b90565b60015481565b600460009054906101000a900473ffffffffffffffffffffffffffffffffffffffff1681565b6000809054906101000a900473ffffffffffffffffffffffffffffffffffffffff1673ffffffffffffffffffffffffffffffffffffffff163373ffffffffffffffffffffffffffffffffffffffff1614610ba5576040517f08c379a000000000000000000000000000000000000000000000000000000000815260040180806020018281038252602c815260200180610fce602c913960400191505060405180910390fd5b60011515600760008060009054906101000a900473ffffffffffffffffffffffffffffffffffffffff1673ffffffffffffffffffffffffffffffffffffffff1673ffffffffffffffffffffffffffffffffffffffff16815260200190815260200160002060009054906101000a900460ff1615151415610c8d576040517f08c379a000000000000000000000000000000000000000000000000000000000815260040180806020018281038252601f8152602001807f41756374696f6e2068617320616c7265616479206265656e207369676e65640081525060200191505060405180910390fd5b6001151560076000600260009054906101000a900473ffffffffffffffffffffffffffffffffffffffff1673ffffffffffffffffffffffffffffffffffffffff1673ffffffffffffffffffffffffffffffffffffffff16815260200190815260200160002060009054906101000a900460ff1615151415610d76576040517f08c379a000000000000000000000000000000000000000000000000000000000815260040180806020018281038252601f8152602001807f41756374696f6e2068617320616c7265616479206265656e207369676e65640081525060200191505060405180910390fd5b6001151560076000600460009054906101000a900473ffffffffffffffffffffffffffffffffffffffff1673ffffffffffffffffffffffffffffffffffffffff1673ffffffffffffffffffffffffffffffffffffffff16815260200190815260200160002060009054906101000a900460ff1615151415610e5f576040517f08c379a000000000000000000000000000000000000000000000000000000000815260040180806020018281038252601f8152602001807f41756374696f6e2068617320616c7265616479206265656e207369676e65640081525060200191505060405180910390fd5b600960009054906101000a900460ff1615610ec5576040517f08c379a0000000000000000000000000000000000000000000000000000000008152600401808060200182810382526023815260200180610ffa6023913960400191505060405180910390fd5b6001600960006101000a81548160ff0219169083151502179055507fa5fb31e47bd1eca58bf14a3312d5e6aeafdc4ee787c8ed348c15c2b092324d9360405160405180910390a160035460056000600260009054906101000a900473ffffffffffffffffffffffffffffffffffffffff1673ffffffffffffffffffffffffffffffffffffffff1673ffffffffffffffffffffffffffffffffffffffff16815260200190815260200160002060008282540192505081905550565b600260009054906101000a900473ffffffffffffffffffffffffffffffffffffffff1681565b6003548156fe43616e6e6f74207369676e206265666f72652061756374696f6e206973206f7665724f6e6c79207468652062656e65666963696172792063616e2063616c6c20746869732066756e6374696f6e2e41756374696f6e2068617320616c7265616479206265656e2063616e63656c6c65642e4f6e6c792074686520696e766f6c76656420706172746965732063616e2063616c6c20746869732066756e6374696f6e2ea265627a7a7231582009bb54329fe425995b09cc3f53abd1e71a94f13d2a8f5a80435383f354a6fd8364736f6c63430005100032a265627a7a72315820565fa502f2aad1cdf8880481720b4cefdbd1532ad428bf8d03f969dbbae7130164736f6c63430005100032",
  "source": "// This contract is used to create a new auction.\r\n\r\n// This code is adapted from https://github.com/brynbellomy/solidity-auction/blob/master/contracts/AuctionFactory.sol\r\n\r\npragma solidity >=0.4.22 <0.9.0;\r\n\r\nimport { SimpleAuction } from './SimpleAuction.sol';\r\n\r\ncontract AuctionMaker {\r\n\r\n    // The list of created auctions\r\n    address[] public auctions;\r\n\r\n    // Event that fires when an auction is created\r\n    event AuctionCreated(address auction, address beneficiary, address ttp, uint biddingTime);\r\n\r\n    // Function to create a new auction with the assigned bidding time\r\n    function createAuction(uint biddingTime, address ttp) public {\r\n        address payable beneficiary = msg.sender;\r\n        SimpleAuction auction = new SimpleAuction(biddingTime, beneficiary, ttp);\r\n\r\n        auctions.push(address(auction));\r\n\r\n        emit AuctionCreated(address(auction), msg.sender, ttp, biddingTime);\r\n    }\r\n\r\n    // Function to get the list of auctions\r\n    function getAuction() public view returns (address[] memory) {\r\n        return auctions;\r\n    }\r\n\r\n}",
  "sourcePath": "E:\\EA SPORTS\\truffleauction\\contracts\\AuctionMaker.sol",
  "compiler": {
    "name": "solc",
    "version": "0.5.16+commit.9c3226ce.Emscripten.clang"
  },
  "schemaVersion": "3.4.7",
  "updatedAt": "2022-05-10T15:30:46.293Z",
  "networkType": "ethereum",
  "devdoc": {
    "methods": {}
  },
  "userdoc": {
    "methods": {}
  }
}